{
  "transactions": [
    {
      "hash": "0xf091415183bfb4801baf9b79b7e4628a97fbc6db1c9918e5ddec2278f2077741",
      "transactionType": "CALL",
      "contractName": null,
      "contractAddress": "0xc5508afda5bbb0b945e193d43a554de61e258a66",
      "function": "relayMessage(address,bytes)",
      "arguments": [
        "0x829e2df8BdBB47b76523fd490c8De27da72458B3",
        "0x1db05a88000000000000000000000000000000000000000000000000000000000000002a"
      ],
      "transaction": {
        "from": "0x30abf2e1ac3a52c8c3f99078d1d52667d656c84b",
        "to": "0xc5508afda5bbb0b945e193d43a554de61e258a66",
        "gas": "0x3f114",
        "value": "0xde0b6b3a7640000",
        "input": "0xe6eb8ade000000000000000000000000829e2df8bdbb47b76523fd490c8de27da72458b3000000000000000000000000000000000000000000000000000000000000004000000000000000000000000000000000000000000000000000000000000000241db05a88000000000000000000000000000000000000000000000000000000000000002a00000000000000000000000000000000000000000000000000000000",
        "nonce": "0x88",
        "chainId": "0xaa36a7"
      },
      "additionalContracts": [],
      "isFixedGasLimit": false
    }
  ],
  "receipts": [
    {
      "status": "0x1",
      "cumulativeGasUsed": "0xefb921",
      "logs": [
        {
          "address": "0x097d90c9d3e0b50ca60e1ae45f6a81010f9fb534",
          "topics": [
            "0xe1fffcc4923d04b559f4d29a8bfc6cda04eb5b0d3c460751c2402c5c5cc9109c",
            "0x0000000000000000000000000bf3de8c5d3e8a2b34d2beeb17abfcebaf363a59"
          ],
          "data": "0x0000000000000000000000000000000000000000000000000000a35b3ff6a75e",
          "blockHash": "0x9b39808b841907c13e128ff6f9afd01227d5f37ca174e5dfcc77f92b98410324",
          "blockNumber": "0x74df00",
          "transactionHash": "0xf091415183bfb4801baf9b79b7e4628a97fbc6db1c9918e5ddec2278f2077741",
          "transactionIndex": "0x5b",
          "logIndex": "0x145",
          "removed": false
        },
        {
          "address": "0x097d90c9d3e0b50ca60e1ae45f6a81010f9fb534",
          "topics": [
            "0xddf252ad1be2c89b69c2b068fc378daa952ba7f163c4a11628f55a4df523b3ef",
            "0x0000000000000000000000000bf3de8c5d3e8a2b34d2beeb17abfcebaf363a59",
            "0x0000000000000000000000008f35b097022135e0f46831f798a240cc8c4b0b01"
          ],
          "data": "0x0000000000000000000000000000000000000000000000000000a35b3ff6a75e",
          "blockHash": "0x9b39808b841907c13e128ff6f9afd01227d5f37ca174e5dfcc77f92b98410324",
          "blockNumber": "0x74df00",
          "transactionHash": "0xf091415183bfb4801baf9b79b7e4628a97fbc6db1c9918e5ddec2278f2077741",
          "transactionIndex": "0x5b",
          "logIndex": "0x146",
          "removed": false
        },
        {
          "address": "0x8f35b097022135e0f46831f798a240cc8c4b0b01",
          "topics": [
            "0xd0c3c799bf9e2639de44391e7f524d229b2b55f5b1ea94b2bf7da42f7243dddd"
          ],
          "data": "0x0000000000000000000000000000000000000000000000000000000000000020000000000000000000000000000000000000000000000000de41ba4fc9d91ad9000000000000000000000000c5508afda5bbb0b945e193d43a554de61e258a660000000000000000000000006489641a0e14315103a87fef87608fdd48da163100000000000000000000000000000000000000000000000000000000000003070000000000000000000000000000000000000000000000000000000000030d4000000000000000000000000000000000000000000000000000000000000000000000000000000000000000000000000000000000000000000000000000000001000000000000000000000000097d90c9d3e0b50ca60e1ae45f6a81010f9fb5340000000000000000000000000000000000000000000000000000a35b3ff6a75e00000000000000000000000000000000000000000000000000000000000001a000000000000000000000000000000000000000000000000000000000000002600000000000000000000000000000000000000000000000000000000000000280f2e0e5ef0573805252b430578b9094920d4ea4f6c22a13491536d3ab1aacfcf200000000000000000000000000000000000000000000000000000000000000a0000000000000000000000000829e2df8bdbb47b76523fd490c8de27da72458b3000000000000000000000000000000000000000000000000000000000000004000000000000000000000000000000000000000000000000000000000000000241db05a88000000000000000000000000000000000000000000000000000000000000002a0000000000000000000000000000000000000000000000000000000000000000000000000000000000000000000000000000000000000000000000000000000000000000000000000000000000000000000000000000000000000000",
          "blockHash": "0x9b39808b841907c13e128ff6f9afd01227d5f37ca174e5dfcc77f92b98410324",
          "blockNumber": "0x74df00",
          "transactionHash": "0xf091415183bfb4801baf9b79b7e4628a97fbc6db1c9918e5ddec2278f2077741",
          "transactionIndex": "0x5b",
          "logIndex": "0x147",
          "removed": false
        },
        {
          "address": "0xc5508afda5bbb0b945e193d43a554de61e258a66",
          "topics": [
            "0x9e6c52944e331ba6270e7fe4cea2a4086bae8f7a27e1cdba07f416806f5d0ac4"
          ],
          "data": "0x000000000000000000000000829e2df8bdbb47b76523fd490c8de27da72458b3000000000000000000000000000000000000000000000000000000000000004000000000000000000000000000000000000000000000000000000000000000241db05a88000000000000000000000000000000000000000000000000000000000000002a00000000000000000000000000000000000000000000000000000000",
          "blockHash": "0x9b39808b841907c13e128ff6f9afd01227d5f37ca174e5dfcc77f92b98410324",
          "blockNumber": "0x74df00",
          "transactionHash": "0xf091415183bfb4801baf9b79b7e4628a97fbc6db1c9918e5ddec2278f2077741",
          "transactionIndex": "0x5b",
          "logIndex": "0x148",
          "removed": false
        }
      ],
      "logsBloom": "0x00000000000040000000000000000000000000000000000000000000008000000000000000000000000000000000000000000000000040000000000000000000000000000000000000000008000000000000000000000000000000008000040000000000000100000000000010000000000000000800000000000010000000000100000040000000020000000000000000000001000000000000800000800400000000000000080400000000000000000000000000000000000100001000000000000002000000100000000000080000000000000000000000000000000000000000000040000000000000000000000004000000000000400000000000000000",
      "type": "0x2",
      "transactionHash": "0xf091415183bfb4801baf9b79b7e4628a97fbc6db1c9918e5ddec2278f2077741",
      "transactionIndex": "0x5b",
      "blockHash": "0x9b39808b841907c13e128ff6f9afd01227d5f37ca174e5dfcc77f92b98410324",
      "blockNumber": "0x74df00",
      "gasUsed": "0x2da8f",
      "effectiveGasPrice": "0x8b98d90a7",
      "from": "0x30abf2e1ac3a52c8c3f99078d1d52667d656c84b",
      "to": "0xc5508afda5bbb0b945e193d43a554de61e258a66",
      "contractAddress": null
    }
  ],
  "libraries": [],
  "pending": [],
  "returns": {},
  "timestamp": 1738941805,
  "chain": 11155111,
  "commit": "5e9ee2b"
}