{
  "transactions": [
    {
      "hash": null,
      "transactionType": "CALL",
      "contractName": null,
      "contractAddress": "0xc5508afda5bbb0b945e193d43a554de61e258a66",
      "function": "relayMessage(address,bytes)",
      "arguments": [
        "0x829e2df8BdBB47b76523fd490c8De27da72458B3",
        "0x1db05a88000000000000000000000000000000000000000000000000000000000000002a"
      ],
      "transaction": {
        "from": "0x30abf2e1ac3a52c8c3f99078d1d52667d656c84b",
        "to": "0xc5508afda5bbb0b945e193d43a554de61e258a66",
        "gas": "0x3f114",
        "value": "0xde0b6b3a7640000",
        "input": "0xe6eb8ade000000000000000000000000829e2df8bdbb47b76523fd490c8de27da72458b3000000000000000000000000000000000000000000000000000000000000004000000000000000000000000000000000000000000000000000000000000000241db05a88000000000000000000000000000000000000000000000000000000000000002a00000000000000000000000000000000000000000000000000000000",
        "nonce": "0x88",
        "chainId": "0xaa36a7"
      },
      "additionalContracts": [],
      "isFixedGasLimit": false
    }
  ],
  "receipts": [],
  "libraries": [],
  "pending": [],
  "returns": {},
  "timestamp": 1738941703,
  "chain": 11155111,
  "commit": "5e9ee2b"
}